{"abi":[{"type":"constructor","inputs":[{"name":"_decrypter","type":"address","internalType":"address"}],"stateMutability":"nonpayable"},{"type":"function","name":"checkMessages","inputs":[{"name":"condition","type":"string","internalType":"string"}],"outputs":[{"name":"","type":"uint8[][]","internalType":"uint8[][]"}],"stateMutability":"view"},{"type":"function","name":"decrypter","inputs":[],"outputs":[{"name":"","type":"address","internalType":"address"}],"stateMutability":"view"},{"type":"function","name":"messagesByCondition","inputs":[{"name":"","type":"string","internalType":"string"},{"name":"","type":"uint256","internalType":"uint256"}],"outputs":[{"name":"sender","type":"address","internalType":"address"},{"name":"condition","type":"string","internalType":"string"},{"name":"isDecrypted","type":"bool","internalType":"bool"}],"stateMutability":"view"},{"type":"function","name":"submitKey","inputs":[{"name":"condition","type":"string","internalType":"string"},{"name":"key","type":"uint8[]","internalType":"uint8[]"}],"outputs":[],"stateMutability":"nonpayable"},{"type":"function","name":"submitMessage","inputs":[{"name":"ciphertext","type":"uint8[]","internalType":"uint8[]"},{"name":"condition","type":"string","internalType":"string"}],"outputs":[],"stateMutability":"nonpayable"}],"bytecode":{"object":"0x6080604052348015600f57600080fd5b5060405161141d38038061141d833981016040819052602c916050565b600180546001600160a01b0319166001600160a01b0392909216919091179055607e565b600060208284031215606157600080fd5b81516001600160a01b0381168114607757600080fd5b9392505050565b6113908061008d6000396000f3fe608060405234801561001057600080fd5b50600436106100575760003560e01c80631f57c44e1461005c5780634726689e1461007157806350dc7eb11461008457806399f078d8146100b4578063bc73ad55146100d4575b600080fd5b61006f61006a366004610868565b6100f6565b005b61006f61007f3660046108cc565b6102e8565b600154610097906001600160a01b031681565b6040516001600160a01b0390911681526020015b60405180910390f35b6100c76100c2366004610926565b6103df565b6040516100ab9190610963565b6100e76100e23660046109f0565b610560565b6040516100ab93929190610a59565b600080836040516101079190610aa3565b90815260405190819003602001902054116101685760405162461bcd60e51b815260206004820152601e60248201527f4e6f206d6573736167657320666f72207468697320636f6e646974696f6e0000604482015260640160405180910390fd5b600080836040516101799190610aa3565b9081526020016040518091039020905060005b81548110156102e2578181815481106101a7576101a7610abf565b600091825260209091206003600590920201015460ff166102da5760015482546000916001600160a01b03169063e33daa2c908590859081106101ec576101ec610abf565b9060005260206000209060050201600101866040518363ffffffff1660e01b815260040161021b929190610b14565b6000604051808303816000875af115801561023a573d6000803e3d6000fd5b505050506040513d6000823e601f3d908101601f19168201604052610262919081019061115d565b9050600183838154811061027857610278610abf565b906000526020600020906005020160030160006101000a81548160ff021916908315150217905550808383815481106102b3576102b3610abf565b906000526020600020906005020160040190805190602001906102d7929190610648565b50505b60010161018c565b50505050565b6040805160a0810182523381526020808201859052818301849052600060608301819052835181815291820184526080830191909152915190919061032e908490610aa3565b90815260405160209181900382019020805460018082018355600092835291839020845160059092020180546001600160a01b0319166001600160a01b039092169190911781558383015180518594929361038e93908501920190610648565b50604082015160028201906103a39082611273565b50606082015160038201805460ff1916911515919091179055608082015180516103d7916004840191602090910190610648565b505050505050565b6060600080836040516103f29190610aa3565b908152602001604051809103902090506000818054905067ffffffffffffffff81111561042157610421610703565b60405190808252806020026020018201604052801561045457816020015b606081526020019060019003908161043f5790505b5090506000805b83548110156105565783818154811061047657610476610abf565b600091825260209091206003600590920201015460ff161561054e578381815481106104a4576104a4610abf565b906000526020600020906005020160040180548060200260200160405190810160405280929190818152602001828054801561051d57602002820191906000526020600020906000905b825461010083900a900460ff168152602060019283018181049485019490930390920291018084116104ee5790505b505050505083838151811061053457610534610abf565b6020026020010181905250818061054a90611333565b9250505b60010161045b565b5090949350505050565b8151602081840181018051600082529282019185019190912091905280548290811061058b57600080fd5b6000918252602090912060059091020180546002820180546001600160a01b0390921694509192506105bc906111ec565b80601f01602080910402602001604051908101604052809291908181526020018280546105e8906111ec565b80156106355780601f1061060a57610100808354040283529160200191610635565b820191906000526020600020905b81548152906001019060200180831161061857829003601f168201915b5050506003909301549192505060ff1683565b82805482825590600052602060002090601f016020900481019282156106de5791602002820160005b838211156106af57835183826101000a81548160ff021916908360ff1602179055509260200192600101602081600001049283019260010302610671565b80156106dc5782816101000a81549060ff02191690556001016020816000010492830192600103026106af565b505b506106ea9291506106ee565b5090565b5b808211156106ea57600081556001016106ef565b634e487b7160e01b600052604160045260246000fd5b604051601f8201601f1916810167ffffffffffffffff8111828210171561074257610742610703565b604052919050565b600082601f83011261075b57600080fd5b813567ffffffffffffffff81111561077557610775610703565b610788601f8201601f1916602001610719565b81815284602083860101111561079d57600080fd5b816020850160208301376000918101602001919091529392505050565b600067ffffffffffffffff8211156107d4576107d4610703565b5060051b60200190565b60ff811681146107ed57600080fd5b50565b600082601f83011261080157600080fd5b81356020610816610811836107ba565b610719565b8083825260208201915060208460051b87010193508684111561083857600080fd5b602086015b8481101561085d578035610850816107de565b835291830191830161083d565b509695505050505050565b6000806040838503121561087b57600080fd5b823567ffffffffffffffff8082111561089357600080fd5b61089f8683870161074a565b935060208501359150808211156108b557600080fd5b506108c2858286016107f0565b9150509250929050565b600080604083850312156108df57600080fd5b823567ffffffffffffffff808211156108f757600080fd5b610903868387016107f0565b9350602085013591508082111561091957600080fd5b506108c28582860161074a565b60006020828403121561093857600080fd5b813567ffffffffffffffff81111561094f57600080fd5b61095b8482850161074a565b949350505050565b6000602080830181845280855180835260408601915060408160051b87010192508387016000805b838110156109e257888603603f19018552825180518088529088019088880190845b818110156109cc57835160ff168352928a0192918a01916001016109ad565b509097505050938601939186019160010161098b565b509398975050505050505050565b60008060408385031215610a0357600080fd5b823567ffffffffffffffff811115610a1a57600080fd5b610a268582860161074a565b95602094909401359450505050565b60005b83811015610a50578181015183820152602001610a38565b50506000910152565b60018060a01b03841681526060602082015260008351806060840152610a86816080850160208801610a35565b921515604083015250601f91909101601f19160160800192915050565b60008251610ab5818460208701610a35565b9190910192915050565b634e487b7160e01b600052603260045260246000fd5b60008151808452602080850194506020840160005b83811015610b0957815160ff1687529582019590820190600101610aea565b509495945050505050565b6000604080830160408452808654610b30818490815260200190565b60008981526020812094509092505b81601f82011015610dc357835460ff80821685526020610b68818701838560081c1660ff169052565b610b7b888701838560101c1660ff169052565b6060610b90818801848660181c1660ff169052565b6080610ba48189018587861c1660ff169052565b60a09250610bbb838901858760281c1660ff169052565b60c0610bd0818a01868860301c1660ff169052565b60e0610be5818b01878960381c1660ff169052565b60ff878d1c8716166101008b0152610c086101208b01878960481c1660ff169052565b610c1d6101408b01878960501c1660ff169052565b610c326101608b01878960581c1660ff169052565b60ff87851c8716166101808b0152610c556101a08b01878960681c1660ff169052565b610c6a6101c08b01878960701c1660ff169052565b610c7f6101e08b01878960781c1660ff169052565b60ff87841c8716166102008b0152610ca26102208b01878960881c1660ff169052565b610cb76102408b01878960901c1660ff169052565b610ccc6102608b01878960981c1660ff169052565b60ff87861c8716166102808b0152610cef6102a08b01878960a81c1660ff169052565b610d046102c08b01878960b01c1660ff169052565b610d196102e08b01878960b81c1660ff169052565b60ff87831c8716166103008b0152610d3c6103208b01878960c81c1660ff169052565b610d516103408b01878960d01c1660ff169052565b610d666103608b01878960d81c1660ff169052565b60ff87821c8716166103808b01525050505050610d8e6103a08601828460e81c1660ff169052565b610da36103c08601828460f01c1660ff169052565b5060f81c6103e08401526001939093019261040090920191602001610b3f565b8354945081811015610ddf5760ff851683526020909201916001015b81811015610dfb5760ff600886901c1683526020909201916001015b81811015610e175760ff601086901c1683526020909201916001015b81811015610e335760ff601886901c1683526020909201916001015b81811015610e5057602085901c60ff168352602092909201916001015b81811015610e6c5760ff602886901c1683526020909201916001015b81811015610e885760ff603086901c1683526020909201916001015b81811015610ea45760ff603886901c1683526020909201916001015b81811015610ec05760ff604086901c1683526020909201916001015b81811015610edc5760ff604886901c1683526020909201916001015b81811015610ef85760ff605086901c1683526020909201916001015b81811015610f145760ff605886901c1683526020909201916001015b81811015610f305760ff606086901c1683526020909201916001015b81811015610f4c5760ff606886901c1683526020909201916001015b81811015610f685760ff607086901c1683526020909201916001015b81811015610f845760ff607886901c1683526020909201916001015b81811015610fa05760ff608086901c1683526020909201916001015b81811015610fbc5760ff608886901c1683526020909201916001015b81811015610fd85760ff609086901c1683526020909201916001015b81811015610ff45760ff609886901c1683526020909201916001015b818110156110105760ff60a086901c1683526020909201916001015b8181101561102c5760ff60a886901c1683526020909201916001015b818110156110485760ff60b086901c1683526020909201916001015b818110156110645760ff60b886901c1683526020909201916001015b818110156110805760ff60c086901c1683526020909201916001015b8181101561109c5760ff60c886901c1683526020909201916001015b818110156110b85760ff60d086901c1683526020909201916001015b818110156110d45760ff60d886901c1683526020909201916001015b818110156110f05760ff60e086901c1683526020909201916001015b8181101561110c5760ff60e886901c1683526020909201916001015b818110156111285760ff60f086901c1683526020909201916001015b8181101561113e5760f885901c83526020830192505b505084810360208601526111528187610ad5565b979650505050505050565b6000602080838503121561117057600080fd5b825167ffffffffffffffff81111561118757600080fd5b8301601f8101851361119857600080fd5b80516111a6610811826107ba565b81815260059190911b820183019083810190878311156111c557600080fd5b928401925b828410156111525783516111dd816107de565b825292840192908401906111ca565b600181811c9082168061120057607f821691505b60208210810361122057634e487b7160e01b600052602260045260246000fd5b50919050565b601f82111561126e576000816000526020600020601f850160051c8101602086101561124f5750805b601f850160051c820191505b818110156103d75782815560010161125b565b505050565b815167ffffffffffffffff81111561128d5761128d610703565b6112a18161129b84546111ec565b84611226565b602080601f8311600181146112d657600084156112be5750858301515b600019600386901b1c1916600185901b1785556103d7565b600085815260208120601f198616915b82811015611305578886015182559484019460019091019084016112e6565b50858210156113235787850151600019600388901b60f8161c191681555b5050505050600190811b01905550565b60006001820161135357634e487b7160e01b600052601160045260246000fd5b506001019056fea264697066735822122064194d81d481dd98a179bc1dce33898cb86f55d1da23c7b6ca59bc8d22e91ecb64736f6c63430008190033","linkReferences":{}},"methodIdentifiers":{"checkMessages(string)":"99f078d8","decrypter()":"50dc7eb1","messagesByCondition(string,uint256)":"bc73ad55","submitKey(string,uint8[])":"1f57c44e","submitMessage(uint8[],string)":"4726689e"},"id":0}