{"abi":[{"type":"constructor","inputs":[{"name":"_decrypter","type":"address","internalType":"address"}],"stateMutability":"nonpayable"},{"type":"function","name":"checkMessages","inputs":[{"name":"condition","type":"string","internalType":"string"}],"outputs":[{"name":"","type":"uint8[][]","internalType":"uint8[][]"}],"stateMutability":"view"},{"type":"function","name":"decrypter","inputs":[],"outputs":[{"name":"","type":"address","internalType":"address"}],"stateMutability":"view"},{"type":"function","name":"messagesByCondition","inputs":[{"name":"","type":"string","internalType":"string"},{"name":"","type":"uint256","internalType":"uint256"}],"outputs":[{"name":"sender","type":"address","internalType":"address"},{"name":"condition","type":"string","internalType":"string"},{"name":"isDecrypted","type":"bool","internalType":"bool"}],"stateMutability":"view"},{"type":"function","name":"submitKey","inputs":[{"name":"condition","type":"string","internalType":"string"},{"name":"key","type":"uint8[]","internalType":"uint8[]"}],"outputs":[],"stateMutability":"nonpayable"},{"type":"function","name":"submitMessage","inputs":[{"name":"ciphertext","type":"uint8[]","internalType":"uint8[]"},{"name":"condition","type":"string","internalType":"string"}],"outputs":[],"stateMutability":"nonpayable"}],"bytecode":{"object":"0x6080604052348015600f57600080fd5b5060405161137d38038061137d833981016040819052602c916050565b600180546001600160a01b0319166001600160a01b0392909216919091179055607e565b600060208284031215606157600080fd5b81516001600160a01b0381168114607757600080fd5b9392505050565b6112f08061008d6000396000f3fe608060405234801561001057600080fd5b50600436106100575760003560e01c80631f57c44e1461005c5780634726689e1461007157806350dc7eb11461008457806399f078d8146100b4578063bc73ad55146100d4575b600080fd5b61006f61006a366004610866565b6100f6565b005b61006f61007f3660046108cf565b6102e8565b600154610097906001600160a01b031681565b6040516001600160a01b0390911681526020015b60405180910390f35b6100c76100c236600461092e565b6103df565b6040516100ab919061096b565b6100e76100e23660046109fd565b610560565b6040516100ab93929190610a66565b600080836040516101079190610ab0565b90815260405190819003602001902054116101685760405162461bcd60e51b815260206004820152601e60248201527f4e6f206d6573736167657320666f72207468697320636f6e646974696f6e0000604482015260640160405180910390fd5b600080836040516101799190610ab0565b9081526020016040518091039020905060005b81548110156102e2578181815481106101a7576101a7610acc565b600091825260209091206003600590920201015460ff166102da5760015482546000916001600160a01b03169063e33daa2c908590859081106101ec576101ec610acc565b9060005260206000209060050201600101866040518363ffffffff1660e01b815260040161021b929190610b21565b6000604051808303816000875af115801561023a573d6000803e3d6000fd5b505050506040513d6000823e601f3d908101601f1916820160405261026291908101906110b6565b9050600183838154811061027857610278610acc565b906000526020600020906005020160030160006101000a81548160ff021916908315150217905550808383815481106102b3576102b3610acc565b906000526020600020906005020160040190805190602001906102d7929190610648565b50505b60010161018c565b50505050565b6040805160a0810182523381526020808201859052818301849052600060608301819052835181815291820184526080830191909152915190919061032e908490610ab0565b90815260405160209181900382019020805460018082018355600092835291839020845160059092020180546001600160a01b0319166001600160a01b039092169190911781558383015180518594929361038e93908501920190610648565b50604082015160028201906103a390826111d4565b50606082015160038201805460ff1916911515919091179055608082015180516103d7916004840191602090910190610648565b505050505050565b6060600080836040516103f29190610ab0565b908152602001604051809103902090506000818054905067ffffffffffffffff81111561042157610421610703565b60405190808252806020026020018201604052801561045457816020015b606081526020019060019003908161043f5790505b5090506000805b83548110156105565783818154811061047657610476610acc565b600091825260209091206003600590920201015460ff161561054e578381815481106104a4576104a4610acc565b906000526020600020906005020160040180548060200260200160405190810160405280929190818152602001828054801561051d57602002820191906000526020600020906000905b825461010083900a900460ff168152602060019283018181049485019490930390920291018084116104ee5790505b505050505083838151811061053457610534610acc565b6020026020010181905250818061054a90611293565b9250505b60010161045b565b5090949350505050565b8151602081840181018051600082529282019185019190912091905280548290811061058b57600080fd5b6000918252602090912060059091020180546002820180546001600160a01b0390921694509192506105bc9061114b565b80601f01602080910402602001604051908101604052809291908181526020018280546105e89061114b565b80156106355780601f1061060a57610100808354040283529160200191610635565b820191906000526020600020905b81548152906001019060200180831161061857829003601f168201915b5050506003909301549192505060ff1683565b82805482825590600052602060002090601f016020900481019282156106de5791602002820160005b838211156106af57835183826101000a81548160ff021916908360ff1602179055509260200192600101602081600001049283019260010302610671565b80156106dc5782816101000a81549060ff02191690556001016020816000010492830192600103026106af565b505b506106ea9291506106ee565b5090565b5b808211156106ea57600081556001016106ef565b634e487b7160e01b600052604160045260246000fd5b604051601f8201601f1916810167ffffffffffffffff8111828210171561074257610742610703565b604052919050565b600082601f83011261075b57600080fd5b813567ffffffffffffffff81111561077557610775610703565b610788601f8201601f1916602001610719565b81815284602083860101111561079d57600080fd5b816020850160208301376000918101602001919091529392505050565b600067ffffffffffffffff8211156107d4576107d4610703565b5060051b60200190565b60ff811681146107ed57600080fd5b50565b600082601f83011261080157600080fd5b813561081461080f826107ba565b610719565b8082825260208201915060208360051b86010192508583111561083657600080fd5b602085015b8381101561085c57803561084e816107de565b83526020928301920161083b565b5095945050505050565b6000806040838503121561087957600080fd5b823567ffffffffffffffff81111561089057600080fd5b61089c8582860161074a565b925050602083013567ffffffffffffffff8111156108b957600080fd5b6108c5858286016107f0565b9150509250929050565b600080604083850312156108e257600080fd5b823567ffffffffffffffff8111156108f957600080fd5b610905858286016107f0565b925050602083013567ffffffffffffffff81111561092257600080fd5b6108c58582860161074a565b60006020828403121561094057600080fd5b813567ffffffffffffffff81111561095757600080fd5b6109638482850161074a565b949350505050565b6000602082016020835280845180835260408501915060408160051b86010192506020860160005b828110156109f157868503603f190184528151805180875260209182019187019060005b818110156109d857835160ff168352602093840193909201916001016109b7565b5090965050506020938401939190910190600101610993565b50929695505050505050565b60008060408385031215610a1057600080fd5b823567ffffffffffffffff811115610a2757600080fd5b610a338582860161074a565b95602094909401359450505050565b60005b83811015610a5d578181015183820152602001610a45565b50506000910152565b60018060a01b03841681526060602082015260008351806060840152610a93816080850160208801610a42565b921515604083015250601f91909101601f19160160800192915050565b60008251610ac2818460208701610a42565b9190910192915050565b634e487b7160e01b600052603260045260246000fd5b600081518084526020840193506020830160005b82811015610b1757815160ff16865260209586019590910190600101610af6565b5093949350505050565b60006040820160408352808554610b3c818490815260200190565b60008881526020812094509092505b81601f82011015610d1e57835460ff81168452600881901c60ff166020850152601081901c60ff166040850152601881901c60ff166060850152602081901c60ff166080850152602881901c60ff1660a0850152603081901c60ff1660c0850152603881901c60ff1660e0850152604081901c60ff16610100850152604881901c60ff16610120850152605081901c60ff16610140850152605881901c60ff16610160850152606081901c60ff16610180850152606881901c60ff166101a0850152607081901c60ff166101c0850152607881901c60ff166101e0850152608081901c60ff16610200850152608881901c60ff16610220850152609081901c60ff16610240850152609881901c60ff1661026085015260a081901c60ff1661028085015260a881901c60ff166102a085015260b081901c60ff166102c085015260b881901c60ff166102e085015260c081901c60ff1661030085015260c881901c60ff1661032085015260d081901c60ff1661034085015260d881901c60ff1661036085015260e081901c60ff1661038085015260e881901c60ff166103a085015260f081901c60ff166103c085015260f881901c6103e085015250600193909301926104009290920191602001610b4b565b92549281811015610d395760ff841683526020909201916001015b81811015610d555760ff600885901c1683526020909201916001015b81811015610d715760ff601085901c1683526020909201916001015b81811015610d8d5760ff601885901c1683526020909201916001015b81811015610daa57602084901c60ff168352602092909201916001015b81811015610dc65760ff602885901c1683526020909201916001015b81811015610de25760ff603085901c1683526020909201916001015b81811015610dfe5760ff603885901c1683526020909201916001015b81811015610e1a5760ff604085901c1683526020909201916001015b81811015610e365760ff604885901c1683526020909201916001015b81811015610e525760ff605085901c1683526020909201916001015b81811015610e6e5760ff605885901c1683526020909201916001015b81811015610e8a5760ff606085901c1683526020909201916001015b81811015610ea65760ff606885901c1683526020909201916001015b81811015610ec25760ff607085901c1683526020909201916001015b81811015610ede5760ff607885901c1683526020909201916001015b81811015610efa5760ff608085901c1683526020909201916001015b81811015610f165760ff608885901c1683526020909201916001015b81811015610f325760ff609085901c1683526020909201916001015b81811015610f4e5760ff609885901c1683526020909201916001015b81811015610f6a5760ff60a085901c1683526020909201916001015b81811015610f865760ff60a885901c1683526020909201916001015b81811015610fa25760ff60b085901c1683526020909201916001015b81811015610fbe5760ff60b885901c1683526020909201916001015b81811015610fda5760ff60c085901c1683526020909201916001015b81811015610ff65760ff60c885901c1683526020909201916001015b818110156110125760ff60d085901c1683526020909201916001015b8181101561102e5760ff60d885901c1683526020909201916001015b8181101561104a5760ff60e085901c1683526020909201916001015b818110156110665760ff60e885901c1683526020909201916001015b818110156110825760ff60f085901c1683526020909201916001015b818110156110985760f884901c83526020830192505b505083810360208501526110ac8186610ae2565b9695505050505050565b6000602082840312156110c857600080fd5b815167ffffffffffffffff8111156110df57600080fd5b8201601f810184136110f057600080fd5b80516110fe61080f826107ba565b8082825260208201915060208360051b85010192508683111561112057600080fd5b6020840193505b828410156110ac57835161113a816107de565b825260209384019390910190611127565b600181811c9082168061115f57607f821691505b60208210810361117f57634e487b7160e01b600052602260045260246000fd5b50919050565b601f8211156111cf57806000526020600020601f840160051c810160208510156111ac5750805b601f840160051c820191505b818110156111cc57600081556001016111b8565b50505b505050565b815167ffffffffffffffff8111156111ee576111ee610703565b611202816111fc845461114b565b84611185565b6020601f821160018114611236576000831561121e5750848201515b600019600385901b1c1916600184901b1784556111cc565b600084815260208120601f198516915b828110156112665787850151825560209485019460019092019101611246565b50848210156112845786840151600019600387901b60f8161c191681555b50505050600190811b01905550565b6000600182016112b357634e487b7160e01b600052601160045260246000fd5b506001019056fea26469706673582212203ac10b7e9620f938e23ddf2f1016694af7a8f5825c3324fff9c0699ab2fc1b0264736f6c634300081a0033","linkReferences":{}},"methodIdentifiers":{"checkMessages(string)":"99f078d8","decrypter()":"50dc7eb1","messagesByCondition(string,uint256)":"bc73ad55","submitKey(string,uint8[])":"1f57c44e","submitMessage(uint8[],string)":"4726689e"},"id":0}